{
  "contractName": "Account",
  "abi": [
    {
      "anonymous": false,
      "inputs": [
        {
          "indexed": false,
          "name": "_name",
          "type": "string"
        },
        {
          "indexed": false,
          "name": "_avator",
          "type": "string"
        }
      ],
      "name": "NewMember",
      "type": "event"
    },
    {
      "constant": false,
      "inputs": [
        {
          "name": "_name",
          "type": "string"
        },
        {
          "name": "_avatar",
          "type": "string"
        }
      ],
      "name": "registerMember",
      "outputs": [],
      "payable": false,
      "stateMutability": "nonpayable",
      "type": "function"
    },
    {
      "constant": true,
      "inputs": [],
      "name": "isMemberOf",
      "outputs": [
        {
          "name": "",
          "type": "bool"
        }
      ],
      "payable": false,
      "stateMutability": "view",
      "type": "function"
    },
    {
      "constant": true,
      "inputs": [],
      "name": "getMemberInfo",
      "outputs": [
        {
          "name": "name",
          "type": "string"
        },
        {
          "name": "avatar",
          "type": "string"
        },
        {
          "name": "balance",
          "type": "uint256"
        }
      ],
      "payable": false,
      "stateMutability": "view",
      "type": "function"
    },
    {
      "constant": true,
      "inputs": [],
      "name": "getTotalBalance",
      "outputs": [
        {
          "name": "",
          "type": "uint256"
        }
      ],
      "payable": false,
      "stateMutability": "view",
      "type": "function"
    },
    {
      "constant": false,
      "inputs": [
        {
          "name": "amount",
          "type": "uint256"
        }
      ],
      "name": "withdraw",
      "outputs": [
        {
          "name": "",
          "type": "uint256"
        }
      ],
      "payable": false,
      "stateMutability": "nonpayable",
      "type": "function"
    }
  ],
  "bytecode": "0x608060405234801561001057600080fd5b50610aed806100206000396000f3fe608060405234801561001057600080fd5b50600436106100575760003560e01c806312b583491461005c5780632e1a7d4d1461007a57806360104e11146100bc5780638db762f5146101b257806390fef8ca146101d4575b600080fd5b610064610326565b6040518082815260200191505060405180910390f35b6100a66004803603602081101561009057600080fd5b8101908080359060200190929190505050610345565b6040518082815260200191505060405180910390f35b6100c46104ee565b604051808060200180602001848152602001838103835286818151815260200191508051906020019080838360005b8381101561010e5780820151818401526020810190506100f3565b50505050905090810190601f16801561013b5780820380516001836020036101000a031916815260200191505b50838103825285818151815260200191508051906020019080838360005b83811015610174578082015181840152602081019050610159565b50505050905090810190601f1680156101a15780820380516001836020036101000a031916815260200191505b509550505050505060405180910390f35b6101ba610754565b604051808215151515815260200191505060405180910390f35b610324600480360360408110156101ea57600080fd5b810190808035906020019064010000000081111561020757600080fd5b82018360208201111561021957600080fd5b8035906020019184600183028401116401000000008311171561023b57600080fd5b91908080601f016020809104026020016040519081016040528093929190818152602001838380828437600081840152601f19601f8201169050808301925050505050505091929192908035906020019064010000000081111561029e57600080fd5b8201836020820111156102b057600080fd5b803590602001918460018302840111640100000000831117156102d257600080fd5b91908080601f016020809104026020016040519081016040528093929190818152602001838380828437600081840152601f19601f8201169050808301925050505050505091929192905050506107aa565b005b60003073ffffffffffffffffffffffffffffffffffffffff1631905090565b6000336000808273ffffffffffffffffffffffffffffffffffffffff1673ffffffffffffffffffffffffffffffffffffffff16815260200190815260200160002060020160009054906101000a900460ff166103a057600080fd5b823073ffffffffffffffffffffffffffffffffffffffff163110156103c457600080fd5b610418836000803373ffffffffffffffffffffffffffffffffffffffff1673ffffffffffffffffffffffffffffffffffffffff1681526020019081526020016000206003015461099390919063ffffffff16565b6000803373ffffffffffffffffffffffffffffffffffffffff1673ffffffffffffffffffffffffffffffffffffffff168152602001908152602001600020600301819055503373ffffffffffffffffffffffffffffffffffffffff166108fc849081150290604051600060405180830381858888f193505050501580156104a3573d6000803e3d6000fd5b506000803373ffffffffffffffffffffffffffffffffffffffff1673ffffffffffffffffffffffffffffffffffffffff16815260200190815260200160002060030154915050919050565b6060806000336000808273ffffffffffffffffffffffffffffffffffffffff1673ffffffffffffffffffffffffffffffffffffffff16815260200190815260200160002060020160009054906101000a900460ff1661054c57600080fd5b6000803373ffffffffffffffffffffffffffffffffffffffff1673ffffffffffffffffffffffffffffffffffffffff1681526020019081526020016000206000016000803373ffffffffffffffffffffffffffffffffffffffff1673ffffffffffffffffffffffffffffffffffffffff1681526020019081526020016000206001016000803373ffffffffffffffffffffffffffffffffffffffff1673ffffffffffffffffffffffffffffffffffffffff16815260200190815260200160002060030154828054600181600116156101000203166002900480601f0160208091040260200160405190810160405280929190818152602001828054600181600116156101000203166002900480156106a55780601f1061067a576101008083540402835291602001916106a5565b820191906000526020600020905b81548152906001019060200180831161068857829003601f168201915b50505050509250818054600181600116156101000203166002900480601f0160208091040260200160405190810160405280929190818152602001828054600181600116156101000203166002900480156107415780601f1061071657610100808354040283529160200191610741565b820191906000526020600020905b81548152906001019060200180831161072457829003601f168201915b5050505050915093509350935050909192565b60008060003373ffffffffffffffffffffffffffffffffffffffff1673ffffffffffffffffffffffffffffffffffffffff16815260200190815260200160002060020160009054906101000a900460ff16905090565b6107b2610754565b156107bc57600080fd5b604051806080016040528083815260200182815260200160011515815260200160008152506000803373ffffffffffffffffffffffffffffffffffffffff1673ffffffffffffffffffffffffffffffffffffffff168152602001908152602001600020600082015181600001908051906020019061083b929190610a1c565b506020820151816001019080519060200190610858929190610a1c565b5060408201518160020160006101000a81548160ff021916908315150217905550606082015181600301559050507f3755c8594bd58121e73f5f5e587afd5806292cfc79f30941caad58c2429b60d48282604051808060200180602001838103835285818151815260200191508051906020019080838360005b838110156108ed5780820151818401526020810190506108d2565b50505050905090810190601f16801561091a5780820380516001836020036101000a031916815260200191505b50838103825284818151815260200191508051906020019080838360005b83811015610953578082015181840152602081019050610938565b50505050905090810190601f1680156109805780820380516001836020036101000a031916815260200191505b5094505050505060405180910390a15050565b600082821115610a0b576040517f08c379a000000000000000000000000000000000000000000000000000000000815260040180806020018281038252601e8152602001807f536166654d6174683a207375627472616374696f6e206f766572666c6f77000081525060200191505060405180910390fd5b600082840390508091505092915050565b828054600181600116156101000203166002900490600052602060002090601f016020900481019282601f10610a5d57805160ff1916838001178555610a8b565b82800160010185558215610a8b579182015b82811115610a8a578251825591602001919060010190610a6f565b5b509050610a989190610a9c565b5090565b610abe91905b80821115610aba576000816000905550600101610aa2565b5090565b9056fea165627a7a723058208406253f442ff712276d5a16c42168c7cb0a67c1c466e513422e8c48bfc79a5d0029",
  "source": "pragma solidity ^0.5.8;\nimport \"./SafeMath.sol\";//开源的安全操作unit256的合约\n\ncontract Account{\n    using SafeMath for uint256;\n    //新成员创建事件\n    event NewMember(string _name, string _avator);\n    //成员信息结构\n    struct Member {\n        string name;//名字\n        string avatar;//头像\n        bool isExist;//是否注册\n        uint256 balance;//可周转余额\n    }\n    //地址到成员信息的mapping\n    mapping(address => Member) internal addressToMember;\n    //限制调用的条件\n    modifier onlyMemberOf(address _from){\n        require(addressToMember[_from].isExist);\n        _;\n    }\n    // 注册\n    function registerMember(string memory _name, string memory _avatar) public {\n        require(!isMemberOf());\n        addressToMember[msg.sender] = Member(_name, _avatar, true, 0);\n        emit NewMember(_name, _avatar);\n    }\n\n    // 判断是否注册\n    function isMemberOf() public view returns (bool) {\n        return addressToMember[msg.sender].isExist;\n    }\n\n    // 获取个人信息\n    function getMemberInfo() public view onlyMemberOf(msg.sender) returns (string memory name, string memory avatar, uint256 balance) {\n        return (addressToMember[msg.sender].name,addressToMember[msg.sender].avatar, addressToMember[msg.sender].balance);\n    }\n    //获取当前合约中的总余额\n    function getTotalBalance() public view returns (uint256) {\n        return address(this).balance;\n    }\n    //取出可周转余额\n    function withdraw(uint256 amount) public onlyMemberOf(msg.sender) returns (uint256) {\n        require(address(this).balance >= amount);\n        addressToMember[msg.sender].balance = addressToMember[msg.sender].balance.sub(amount);\n        msg.sender.transfer(amount);\n        return addressToMember[msg.sender].balance;\n    }\n}\n\n",
  "sourcePath": "/Users/helloworld/Documents/etherSquare/dappDemo/vue-test/vue-dapp-demo/client/contracts/Account.sol",
  "compiler": {
    "name": "solc",
    "version": "0.5.8+commit.23d335f2.Emscripten.clang"
  },
  "schemaVersion": "3.0.11",
  "updatedAt": "2019-07-28T06:35:50.850Z",
  "devdoc": {
    "methods": {}
  },
  "userdoc": {
    "methods": {}
  }
}